{
  "_format": "hh-sol-artifact-1",
  "contractName": "Token",
  "sourceName": "contracts/Token.sol",
  "abi": [
    {
      "inputs": [],
      "stateMutability": "nonpayable",
      "type": "constructor"
    },
    {
      "anonymous": false,
      "inputs": [
        {
          "indexed": true,
          "internalType": "address",
          "name": "_from",
          "type": "address"
        },
        {
          "indexed": true,
          "internalType": "address",
          "name": "_to",
          "type": "address"
        },
        {
          "indexed": false,
          "internalType": "uint256",
          "name": "_value",
          "type": "uint256"
        }
      ],
      "name": "Transfer",
      "type": "event"
    },
    {
      "inputs": [
        {
          "internalType": "address",
          "name": "account",
          "type": "address"
        }
      ],
      "name": "balanceOf",
      "outputs": [
        {
          "internalType": "uint256",
          "name": "",
          "type": "uint256"
        }
      ],
      "stateMutability": "view",
      "type": "function"
    },
    {
      "inputs": [],
      "name": "name",
      "outputs": [
        {
          "internalType": "string",
          "name": "",
          "type": "string"
        }
      ],
      "stateMutability": "view",
      "type": "function"
    },
    {
      "inputs": [],
      "name": "owner",
      "outputs": [
        {
          "internalType": "address",
          "name": "",
          "type": "address"
        }
      ],
      "stateMutability": "view",
      "type": "function"
    },
    {
      "inputs": [],
      "name": "symbol",
      "outputs": [
        {
          "internalType": "string",
          "name": "",
          "type": "string"
        }
      ],
      "stateMutability": "view",
      "type": "function"
    },
    {
      "inputs": [],
      "name": "totalSupply",
      "outputs": [
        {
          "internalType": "uint256",
          "name": "",
          "type": "uint256"
        }
      ],
      "stateMutability": "view",
      "type": "function"
    },
    {
      "inputs": [
        {
          "internalType": "address",
          "name": "to",
          "type": "address"
        },
        {
          "internalType": "uint256",
          "name": "amount",
          "type": "uint256"
        }
      ],
      "name": "transfer",
      "outputs": [],
      "stateMutability": "nonpayable",
      "type": "function"
    }
  ],
  "bytecode": "0x60c0604052601060809081526f26bc902430b9323430ba102a37b5b2b760811b60a05260009061002f9082610139565b5060408051808201909152600381526213521560ea1b60208201526001906100579082610139565b50620f424060025534801561006b57600080fd5b5060025433600081815260046020526040902091909155600380546001600160a01b03191690911790556101f7565b634e487b7160e01b600052604160045260246000fd5b600181811c908216806100c457607f821691505b6020821081036100e457634e487b7160e01b600052602260045260246000fd5b50919050565b601f82111561013457806000526020600020601f840160051c810160208510156101115750805b601f840160051c820191505b81811015610131576000815560010161011d565b50505b505050565b81516001600160401b038111156101525761015261009a565b6101668161016084546100b0565b846100ea565b6020601f82116001811461019a57600083156101825750848201515b600019600385901b1c1916600184901b178455610131565b600084815260208120601f198516915b828110156101ca57878501518255602094850194600190920191016101aa565b50848210156101e85786840151600019600387901b60f8161c191681555b50505050600190811b01905550565b610418806102066000396000f3fe608060405234801561001057600080fd5b50600436106100725760003560e01c80638da5cb5b116100505780638da5cb5b146100d557806395d89b4114610100578063a9059cbb1461010857600080fd5b806306fdde031461007757806318160ddd1461009557806370a08231146100ac575b600080fd5b61007f61011d565b60405161008c91906102b0565b60405180910390f35b61009e60025481565b60405190815260200161008c565b61009e6100ba36600461031a565b6001600160a01b031660009081526004602052604090205490565b6003546100e8906001600160a01b031681565b6040516001600160a01b03909116815260200161008c565b61007f6101ab565b61011b61011636600461033c565b6101b8565b005b6000805461012a90610366565b80601f016020809104026020016040519081016040528092919081815260200182805461015690610366565b80156101a35780601f10610178576101008083540402835291602001916101a3565b820191906000526020600020905b81548152906001019060200180831161018657829003601f168201915b505050505081565b6001805461012a90610366565b3360009081526004602052604090205481111561021b5760405162461bcd60e51b815260206004820152601160248201527f4e6f7420656e6f75676820746f6b656e73000000000000000000000000000000604482015260640160405180910390fd5b336000908152600460205260408120805483929061023a9084906103b6565b90915550506001600160a01b038216600090815260046020526040812080548392906102679084906103cf565b90915550506040518181526001600160a01b0383169033907fddf252ad1be2c89b69c2b068fc378daa952ba7f163c4a11628f55a4df523b3ef9060200160405180910390a35050565b602081526000825180602084015260005b818110156102de57602081860181015160408684010152016102c1565b506000604082850101526040601f19601f83011684010191505092915050565b80356001600160a01b038116811461031557600080fd5b919050565b60006020828403121561032c57600080fd5b610335826102fe565b9392505050565b6000806040838503121561034f57600080fd5b610358836102fe565b946020939093013593505050565b600181811c9082168061037a57607f821691505b60208210810361039a57634e487b7160e01b600052602260045260246000fd5b50919050565b634e487b7160e01b600052601160045260246000fd5b818103818111156103c9576103c96103a0565b92915050565b808201808211156103c9576103c96103a056fea2646970667358221220adf58583b5d0e42d8c105674c75d84ef17eb846f47f7d551366fce0882d7d02664736f6c634300081c0033",
  "linkReferences": {},
  "deployedLinkReferences": {}
}